{
  "abi": [
    {
      "inputs": [
        {
          "internalType": "address[]",
          "name": "_professors",
          "type": "address[]"
        },
        {
          "internalType": "address[]",
          "name": "_students",
          "type": "address[]"
        },
        {
          "internalType": "string[]",
          "name": "_exams",
          "type": "string[]"
        }
      ],
      "stateMutability": "nonpayable",
      "type": "constructor"
    },
    {
      "anonymous": false,
      "inputs": [
        {
          "indexed": true,
          "internalType": "string",
          "name": "examResult",
          "type": "string"
        },
        {
          "indexed": true,
          "internalType": "uint256",
          "name": "grade",
          "type": "uint256"
        }
      ],
      "name": "examGraded",
      "type": "event"
    },
    {
      "anonymous": false,
      "inputs": [
        {
          "indexed": true,
          "internalType": "address",
          "name": "student",
          "type": "address"
        },
        {
          "indexed": true,
          "internalType": "string",
          "name": "examResult",
          "type": "string"
        }
      ],
      "name": "examRegistered",
      "type": "event"
    },
    {
      "inputs": [
        {
          "internalType": "address",
          "name": "_user",
          "type": "address"
        },
        {
          "internalType": "bool",
          "name": "_isProfessor",
          "type": "bool"
        }
      ],
      "name": "getExamResults",
      "outputs": [
        {
          "internalType": "string[]",
          "name": "",
          "type": "string[]"
        }
      ],
      "stateMutability": "view",
      "type": "function"
    },
    {
      "inputs": [],
      "name": "getExams",
      "outputs": [
        {
          "internalType": "string[]",
          "name": "",
          "type": "string[]"
        }
      ],
      "stateMutability": "view",
      "type": "function"
    },
    {
      "inputs": [
        {
          "internalType": "address",
          "name": "_addr",
          "type": "address"
        }
      ],
      "name": "getUser",
      "outputs": [
        {
          "internalType": "bool",
          "name": "",
          "type": "bool"
        }
      ],
      "stateMutability": "view",
      "type": "function"
    },
    {
      "inputs": [
        {
          "internalType": "string",
          "name": "_examResult",
          "type": "string"
        },
        {
          "internalType": "uint8",
          "name": "_grade",
          "type": "uint8"
        }
      ],
      "name": "gradeExam",
      "outputs": [],
      "stateMutability": "nonpayable",
      "type": "function"
    },
    {
      "inputs": [
        {
          "internalType": "address",
          "name": "_professor",
          "type": "address"
        },
        {
          "internalType": "string",
          "name": "_examResult",
          "type": "string"
        }
      ],
      "name": "registerExam",
      "outputs": [],
      "stateMutability": "payable",
      "type": "function"
    }
  ],
  "bytecode": {
    "object": "0x60806040523480156200001157600080fd5b506040516200192f3803806200192f833981016040819052620000349162000685565b62000040838362000241565b15620000df5760405162461bcd60e51b815260206004820152605360248201527f416e206164647265737365732077697468207468652073616d652076616c756560448201527f2063616e20626520666f756e6420696e20626f74682070726f666573736f727360648201527f20616e642073747564656e747320617272617900000000000000000000000000608482015260a4015b60405180910390fd5b620000ea8162000375565b15620001445760405162461bcd60e51b815260206004820152602260248201527f4172726179206f66206578616d7320636f6e7461696e73206475706c69636174604482015261657360f01b6064820152608401620000d6565b60005b8351811015620001b25760018060008684815181106200016b576200016b620007e6565b6020908102919091018101516001600160a01b03168252810191909152604001600020805460ff191691151591909117905580620001a98162000812565b91505062000147565b5060005b825181101562000221576001806000858481518110620001da57620001da620007e6565b6020908102919091018101516001600160a01b03168252810191909152604001600020805460ff191691151591909117905580620002188162000812565b915050620001b6565b508051620002379060009060208401906200048f565b50505050620009d3565b600060018351108062000255575060018251105b1562000264575060006200036f565b60005b8351811015620003695760005b83518110156200035357838181518110620002935762000293620007e6565b6020026020010151604051602001620002bf919060609190911b6001600160601b031916815260140190565b60405160208183030381529060405280519060200120858381518110620002ea57620002ea620007e6565b602002602001015160405160200162000316919060609190911b6001600160601b031916815260140190565b60405160208183030381529060405280519060200120036200033e576001925050506200036f565b806200034a8162000812565b91505062000274565b5080620003608162000812565b91505062000267565b50600090505b92915050565b60006001825110156200038a57506000919050565b60005b600183516200039d91906200082e565b81101562000486576000620003b482600162000844565b90505b83518110156200047057838181518110620003d657620003d6620007e6565b6020026020010151604051602001620003f091906200085a565b604051602081830303815290604052805190602001208483815181106200041b576200041b620007e6565b60200260200101516040516020016200043591906200085a565b60405160208183030381529060405280519060200120036200045b575060019392505050565b80620004678162000812565b915050620003b7565b50806200047d8162000812565b9150506200038d565b50600092915050565b828054828255906000526020600020908101928215620004da579160200282015b82811115620004da5782518290620004c9908262000907565b5091602001919060010190620004b0565b50620004e8929150620004ec565b5090565b80821115620004e85760006200050382826200050d565b50600101620004ec565b5080546200051b9062000878565b6000825580601f106200052c575050565b601f0160209004906000526020600020908101906200054c91906200054f565b50565b5b80821115620004e8576000815560010162000550565b634e487b7160e01b600052604160045260246000fd5b604051601f8201601f191681016001600160401b0381118282101715620005a757620005a762000566565b604052919050565b60006001600160401b03821115620005cb57620005cb62000566565b5060051b60200190565b600082601f830112620005e757600080fd5b8151602062000600620005fa83620005af565b6200057c565b82815260059290921b840181019181810190868411156200062057600080fd5b8286015b84811015620006545780516001600160a01b0381168114620006465760008081fd5b835291830191830162000624565b509695505050505050565b60005b838110156200067c57818101518382015260200162000662565b50506000910152565b6000806000606084860312156200069b57600080fd5b83516001600160401b0380821115620006b357600080fd5b620006c187838801620005d5565b9450602091508186015181811115620006d957600080fd5b620006e788828901620005d5565b94505060408087015182811115620006fe57600080fd5b8701601f810189136200071057600080fd5b805162000721620005fa82620005af565b81815260059190911b8201850190858101908b8311156200074157600080fd5b8684015b83811015620007d4578051878111156200075f5760008081fd5b8501603f81018e13620007725760008081fd5b888101518881111562000789576200078962000566565b6200079d601f8201601f19168b016200057c565b8181528f89838501011115620007b35760008081fd5b620007c4828c83018b86016200065f565b8552505091870191870162000745565b50809750505050505050509250925092565b634e487b7160e01b600052603260045260246000fd5b634e487b7160e01b600052601160045260246000fd5b600060018201620008275762000827620007fc565b5060010190565b818103818111156200036f576200036f620007fc565b808201808211156200036f576200036f620007fc565b600082516200086e8184602087016200065f565b9190910192915050565b600181811c908216806200088d57607f821691505b602082108103620008ae57634e487b7160e01b600052602260045260246000fd5b50919050565b601f8211156200090257600081815260208120601f850160051c81016020861015620008dd5750805b601f850160051c820191505b81811015620008fe57828155600101620008e9565b5050505b505050565b81516001600160401b0381111562000923576200092362000566565b6200093b8162000934845462000878565b84620008b4565b602080601f8311600181146200097357600084156200095a5750858301515b600019600386901b1c1916600185901b178555620008fe565b600085815260208120601f198616915b82811015620009a45788860151825594840194600190910190840162000983565b5085821015620009c35787850151600019600388901b60f8161c191681555b5050505050600190811b01905550565b610f4c80620009e36000396000f3fe60806040526004361061004a5760003560e01c8063236472ce1461004f5780636f77926b1461007a57806395c47bb0146100c3578063c0a49042146100e3578063f8e96b3114610105575b600080fd5b34801561005b57600080fd5b50610064610118565b6040516100719190610af8565b60405180910390f35b34801561008657600080fd5b506100b3610095366004610b8e565b6001600160a01b031660009081526001602052604090205460ff1690565b6040519015158152602001610071565b3480156100cf57600080fd5b506100646100de366004610bb0565b6101f1565b3480156100ef57600080fd5b506101036100fe366004610c8f565b6103cf565b005b610103610113366004610cdc565b6105f8565b60606000805480602002602001604051908101604052809291908181526020016000905b828210156101e857838290600052602060002001805461015b90610d2a565b80601f016020809104026020016040519081016040528092919081815260200182805461018790610d2a565b80156101d45780601f106101a9576101008083540402835291602001916101d4565b820191906000526020600020905b8154815290600101906020018083116101b757829003601f168201915b50505050508152602001906001019061013c565b50505050905090565b606081156102e3576001600160a01b038316600090815260026020908152604080832080548251818502810185019093528083529193909284015b828210156102d857838290600052602060002001805461024b90610d2a565b80601f016020809104026020016040519081016040528092919081815260200182805461027790610d2a565b80156102c45780601f10610299576101008083540402835291602001916102c4565b820191906000526020600020905b8154815290600101906020018083116102a757829003601f168201915b50505050508152602001906001019061022c565b5050505090506103c9565b6001600160a01b038316600090815260036020908152604080832080548251818502810185019093528083529193909284015b828210156103c257838290600052602060002001805461033590610d2a565b80601f016020809104026020016040519081016040528092919081815260200182805461036190610d2a565b80156103ae5780601f10610383576101008083540402835291602001916103ae565b820191906000526020600020905b81548152906001019060200180831161039157829003601f168201915b505050505081526020019060010190610316565b5050505090505b92915050565b3360009081526001602052604090205460ff166104075760405162461bcd60e51b81526004016103fe90610d64565b60405180910390fd5b33600090815260026020908152604080832080548251818502810185019093528083526104ed9492939192909184015b828210156104e357838290600052602060002001805461045690610d2a565b80601f016020809104026020016040519081016040528092919081815260200182805461048290610d2a565b80156104cf5780601f106104a4576101008083540402835291602001916104cf565b820191906000526020600020905b8154815290600101906020018083116104b257829003601f168201915b505050505081526020019060010190610437565b5050505083610a22565b6105505760405162461bcd60e51b815260206004820152602e60248201527f54686973206578616d20726573756c7420646f6573206e6f742065786973747360448201526d103337b910383937b332b9b9b7b960911b60648201526084016103fe565b60048160ff161180156105665750600b8160ff16105b6105b25760405162461bcd60e51b815260206004820152601e60248201527f4772616465206d757374206265206265747765656e203520616e64203130000060448201526064016103fe565b8060ff16826040516105c49190610dae565b604051908190038120907f663f6aea0f912c20938efd6c0ea9a597a324f66eef2af9bc9130e8cd8775479990600090a35050565b6001600160a01b03821660009081526001602052604090205460ff166106305760405162461bcd60e51b81526004016103fe90610d64565b3360009081526001602052604090205460ff166106a05760405162461bcd60e51b815260206004820152602860248201527f53747564656e7420776974682074686174206164647265737320646f6573206e6044820152671bdd08195e1a5cdd60c21b60648201526084016103fe565b33600090815260036020908152604080832080548251818502810185019093528083526107869492939192909184015b8282101561077c5783829060005260206000200180546106ef90610d2a565b80601f016020809104026020016040519081016040528092919081815260200182805461071b90610d2a565b80156107685780601f1061073d57610100808354040283529160200191610768565b820191906000526020600020905b81548152906001019060200180831161074b57829003601f168201915b5050505050815260200190600101906106d0565b5050505082610a22565b156107e45760405162461bcd60e51b815260206004820152602860248201527f54686973206578616d20726573756c7420616c726561647920657869737473206044820152673337b9103ab9b2b960c11b60648201526084016103fe565b6001600160a01b038216600090815260026020908152604080832080548251818502810185019093528083526108c99492939192909184015b8282101561077c57838290600052602060002001805461083c90610d2a565b80601f016020809104026020016040519081016040528092919081815260200182805461086890610d2a565b80156108b55780601f1061088a576101008083540402835291602001916108b5565b820191906000526020600020905b81548152906001019060200180831161089857829003601f168201915b50505050508152602001906001019061081d565b1561092c5760405162461bcd60e51b815260206004820152602d60248201527f54686973206578616d20726573756c7420616c7265616479206578697374732060448201526c3337b910383937b332b9b9b7b960991b60648201526084016103fe565b650500918bd80034116109815760405162461bcd60e51b815260206004820152601c60248201527f496e73756666696369656e742066756e647320776572652073656e740000000060448201526064016103fe565b336000908152600360209081526040822080546001810182559083529120016109aa8282610e19565b506001600160a01b0382166000908152600260209081526040822080546001810182559083529120016109dd8282610e19565b50806040516109ec9190610dae565b6040519081900381209033907f222e564ef25aef42311d4b4dcec971d4fbfcbd5dcebcea593ecad08057f0db2e90600090a35050565b6000600183511015610a36575060006103c9565b60005b8351811015610aca5782604051602001610a539190610dae565b60405160208183030381529060405280519060200120848281518110610a7b57610a7b610ed9565b6020026020010151604051602001610a939190610dae565b6040516020818303038152906040528051906020012003610ab85760019150506103c9565b80610ac281610eef565b915050610a39565b5060009392505050565b60005b83811015610aef578181015183820152602001610ad7565b50506000910152565b6000602080830181845280855180835260408601915060408160051b870101925083870160005b82811015610b6557878503603f1901845281518051808752610b46818989018a8501610ad4565b601f01601f191695909501860194509285019290850190600101610b1f565b5092979650505050505050565b80356001600160a01b0381168114610b8957600080fd5b919050565b600060208284031215610ba057600080fd5b610ba982610b72565b9392505050565b60008060408385031215610bc357600080fd5b610bcc83610b72565b915060208301358015158114610be157600080fd5b809150509250929050565b634e487b7160e01b600052604160045260246000fd5b600082601f830112610c1357600080fd5b813567ffffffffffffffff80821115610c2e57610c2e610bec565b604051601f8301601f19908116603f01168101908282118183101715610c5657610c56610bec565b81604052838152866020858801011115610c6f57600080fd5b836020870160208301376000602085830101528094505050505092915050565b60008060408385031215610ca257600080fd5b823567ffffffffffffffff811115610cb957600080fd5b610cc585828601610c02565b925050602083013560ff81168114610be157600080fd5b60008060408385031215610cef57600080fd5b610cf883610b72565b9150602083013567ffffffffffffffff811115610d1457600080fd5b610d2085828601610c02565b9150509250929050565b600181811c90821680610d3e57607f821691505b602082108103610d5e57634e487b7160e01b600052602260045260246000fd5b50919050565b6020808252602a908201527f50726f666573736f7220776974682074686174206164647265737320646f6573604082015269081b9bdd08195e1a5cdd60b21b606082015260800190565b60008251610dc0818460208701610ad4565b9190910192915050565b601f821115610e1457600081815260208120601f850160051c81016020861015610df15750805b601f850160051c820191505b81811015610e1057828155600101610dfd565b5050505b505050565b815167ffffffffffffffff811115610e3357610e33610bec565b610e4781610e418454610d2a565b84610dca565b602080601f831160018114610e7c5760008415610e645750858301515b600019600386901b1c1916600185901b178555610e10565b600085815260208120601f198616915b82811015610eab57888601518255948401946001909101908401610e8c565b5085821015610ec95787850151600019600388901b60f8161c191681555b5050505050600190811b01905550565b634e487b7160e01b600052603260045260246000fd5b600060018201610f0f57634e487b7160e01b600052601160045260246000fd5b506001019056fea264697066735822122005fb3527eea44c9649147d606e37e9258e9a62eee213bbbc4dbbd6a1800fb3e664736f6c63430008150033",
    "linkReferences": {}
  },
  "methodIdentifiers": {
    "getExamResults(address,bool)": "95c47bb0",
    "getExams()": "236472ce",
    "getUser(address)": "6f77926b",
    "gradeExam(string,uint8)": "c0a49042",
    "registerExam(address,string)": "f8e96b31"
  },
  "id": 0
}